{
  "contractName": "SimpleBalancer",
  "abi": [
    {
      "inputs": [
        {
          "internalType": "contract IERC20",
          "name": "_tokenA",
          "type": "address"
        },
        {
          "internalType": "contract IERC20",
          "name": "_tokenB",
          "type": "address"
        }
      ],
      "stateMutability": "nonpayable",
      "type": "constructor"
    },
    {
      "inputs": [],
      "name": "tokenA",
      "outputs": [
        {
          "internalType": "contract IERC20",
          "name": "",
          "type": "address"
        }
      ],
      "stateMutability": "view",
      "type": "function"
    },
    {
      "inputs": [],
      "name": "tokenB",
      "outputs": [
        {
          "internalType": "contract IERC20",
          "name": "",
          "type": "address"
        }
      ],
      "stateMutability": "view",
      "type": "function"
    },
    {
      "inputs": [
        {
          "internalType": "uint256",
          "name": "amount",
          "type": "uint256"
        }
      ],
      "name": "swapAToB",
      "outputs": [],
      "stateMutability": "nonpayable",
      "type": "function"
    },
    {
      "inputs": [
        {
          "internalType": "uint256",
          "name": "amount",
          "type": "uint256"
        }
      ],
      "name": "swapBToA",
      "outputs": [],
      "stateMutability": "nonpayable",
      "type": "function"
    }
  ],
  "bytecode": "0x608060405234801561000f575f80fd5b506040516108e33803806108e383398181016040528101906100319190610126565b815f806101000a81548173ffffffffffffffffffffffffffffffffffffffff021916908373ffffffffffffffffffffffffffffffffffffffff1602179055508060015f6101000a81548173ffffffffffffffffffffffffffffffffffffffff021916908373ffffffffffffffffffffffffffffffffffffffff1602179055505050610164565b5f80fd5b5f73ffffffffffffffffffffffffffffffffffffffff82169050919050565b5f6100e4826100bb565b9050919050565b5f6100f5826100da565b9050919050565b610105816100eb565b811461010f575f80fd5b50565b5f81519050610120816100fc565b92915050565b5f806040838503121561013c5761013b6100b7565b5b5f61014985828601610112565b925050602061015a85828601610112565b9150509250929050565b610772806101715f395ff3fe608060405234801561000f575f80fd5b506004361061004a575f3560e01c80630fc63d101461004e57806338720f721461006c5780635f64b55b1461008857806385949788146100a6575b5f80fd5b6100566100c2565b60405161006391906104f6565b60405180910390f35b61008660048036038101906100819190610546565b6100e5565b005b61009061029e565b60405161009d91906104f6565b60405180910390f35b6100c060048036038101906100bb9190610546565b6102c3565b005b5f8054906101000a900473ffffffffffffffffffffffffffffffffffffffff1681565b5f8054906101000a900473ffffffffffffffffffffffffffffffffffffffff1673ffffffffffffffffffffffffffffffffffffffff166323b872dd3330846040518463ffffffff1660e01b8152600401610141939291906105a0565b6020604051808303815f875af115801561015d573d5f803e3d5ffd5b505050506040513d601f19601f82011682018060405250810190610181919061060a565b6101c0576040517f08c379a00000000000000000000000000000000000000000000000000000000081526004016101b79061068f565b60405180910390fd5b60015f9054906101000a900473ffffffffffffffffffffffffffffffffffffffff1673ffffffffffffffffffffffffffffffffffffffff1663a9059cbb33836040518363ffffffff1660e01b815260040161021c9291906106ad565b6020604051808303815f875af1158015610238573d5f803e3d5ffd5b505050506040513d601f19601f8201168201806040525081019061025c919061060a565b61029b576040517f08c379a00000000000000000000000000000000000000000000000000000000081526004016102929061071e565b60405180910390fd5b50565b60015f9054906101000a900473ffffffffffffffffffffffffffffffffffffffff1681565b60015f9054906101000a900473ffffffffffffffffffffffffffffffffffffffff1673ffffffffffffffffffffffffffffffffffffffff166323b872dd3330846040518463ffffffff1660e01b8152600401610321939291906105a0565b6020604051808303815f875af115801561033d573d5f803e3d5ffd5b505050506040513d601f19601f82011682018060405250810190610361919061060a565b6103a0576040517f08c379a00000000000000000000000000000000000000000000000000000000081526004016103979061071e565b60405180910390fd5b5f8054906101000a900473ffffffffffffffffffffffffffffffffffffffff1673ffffffffffffffffffffffffffffffffffffffff1663a9059cbb33836040518363ffffffff1660e01b81526004016103fa9291906106ad565b6020604051808303815f875af1158015610416573d5f803e3d5ffd5b505050506040513d601f19601f8201168201806040525081019061043a919061060a565b610479576040517f08c379a00000000000000000000000000000000000000000000000000000000081526004016104709061068f565b60405180910390fd5b50565b5f73ffffffffffffffffffffffffffffffffffffffff82169050919050565b5f819050919050565b5f6104be6104b96104b48461047c565b61049b565b61047c565b9050919050565b5f6104cf826104a4565b9050919050565b5f6104e0826104c5565b9050919050565b6104f0816104d6565b82525050565b5f6020820190506105095f8301846104e7565b92915050565b5f80fd5b5f819050919050565b61052581610513565b811461052f575f80fd5b50565b5f813590506105408161051c565b92915050565b5f6020828403121561055b5761055a61050f565b5b5f61056884828501610532565b91505092915050565b5f61057b8261047c565b9050919050565b61058b81610571565b82525050565b61059a81610513565b82525050565b5f6060820190506105b35f830186610582565b6105c06020830185610582565b6105cd6040830184610591565b949350505050565b5f8115159050919050565b6105e9816105d5565b81146105f3575f80fd5b50565b5f81519050610604816105e0565b92915050565b5f6020828403121561061f5761061e61050f565b5b5f61062c848285016105f6565b91505092915050565b5f82825260208201905092915050565b7f5472616e73666572206f6620546f6b656e2041206661696c65640000000000005f82015250565b5f610679601a83610635565b915061068482610645565b602082019050919050565b5f6020820190508181035f8301526106a68161066d565b9050919050565b5f6040820190506106c05f830185610582565b6106cd6020830184610591565b9392505050565b7f5472616e73666572206f6620546f6b656e2042206661696c65640000000000005f82015250565b5f610708601a83610635565b9150610713826106d4565b602082019050919050565b5f6020820190508181035f830152610735816106fc565b905091905056fea264697066735822122029b5c03a75d4969475f9a99695855b1c1f3fd5b7bb52fd8c9b8655d378db995164736f6c63430008150033",
  "immutableReferences": {},
  "source": "// SPDX-License-Identifier: MIT\r\npragma solidity ^0.8.0;\r\n\r\nimport \"@openzeppelin/contracts/token/ERC20/IERC20.sol\";\r\n\r\ncontract SimpleBalancer {\r\n    IERC20 public tokenA;\r\n    IERC20 public tokenB;\r\n\r\n    constructor(IERC20 _tokenA, IERC20 _tokenB) {\r\n        tokenA = _tokenA;\r\n        tokenB = _tokenB;\r\n    }\r\n\r\n    function swapAToB(uint256 amount) public {\r\n        require(tokenA.transferFrom(msg.sender, address(this), amount), \"Transfer of Token A failed\");\r\n        require(tokenB.transfer(msg.sender, amount), \"Transfer of Token B failed\");\r\n    }\r\n\r\n    function swapBToA(uint256 amount) public {\r\n        require(tokenB.transferFrom(msg.sender, address(this), amount), \"Transfer of Token B failed\");\r\n        require(tokenA.transfer(msg.sender, amount), \"Transfer of Token A failed\");\r\n    }\r\n}\r\n",
  "sourcePath": "D:\\Web Development\\11 - Internship Projects\\simple-balancer\\contracts\\SimpleBalancer.sol",
  "compiler": {
    "name": "solc",
    "version": "0.8.21+commit.d9974bed.Emscripten.clang"
  },
  "schemaVersion": "3.4.16",
  "updatedAt": "2024-09-04T08:27:49.314Z",
  "devdoc": {
    "kind": "dev",
    "methods": {},
    "version": 1
  },
  "userdoc": {
    "kind": "user",
    "methods": {},
    "version": 1
  }
}