{
  "contractName": "BalancerFactory",
  "abi": [
    {
      "inputs": [
        {
          "internalType": "address",
          "name": "",
          "type": "address"
        },
        {
          "internalType": "uint256",
          "name": "",
          "type": "uint256"
        }
      ],
      "name": "userPools",
      "outputs": [
        {
          "internalType": "address",
          "name": "",
          "type": "address"
        }
      ],
      "stateMutability": "view",
      "type": "function"
    },
    {
      "inputs": [
        {
          "internalType": "address[]",
          "name": "tokens",
          "type": "address[]"
        },
        {
          "internalType": "uint256[]",
          "name": "weights",
          "type": "uint256[]"
        }
      ],
      "name": "createPool",
      "outputs": [
        {
          "internalType": "address",
          "name": "",
          "type": "address"
        }
      ],
      "stateMutability": "nonpayable",
      "type": "function"
    }
  ],
  "bytecode": "0x608060405234801561000f575f80fd5b506114438061001d5f395ff3fe608060405234801562000010575f80fd5b506004361062000038575f3560e01c80631064aa55146200003c578063d7d461ea1462000072575b5f80fd5b6200005a6004803603810190620000549190620002cf565b620000a8565b60405162000069919062000325565b60405180910390f35b6200009060048036038101906200008a91906200057f565b620000f0565b6040516200009f919062000325565b60405180910390f35b5f602052815f5260405f208181548110620000c1575f80fd5b905f5260205f20015f915091509054906101000a900473ffffffffffffffffffffffffffffffffffffffff1681565b5f815183511462000138576040517f08c379a00000000000000000000000000000000000000000000000000000000081526004016200012f9062000660565b60405180910390fd5b5f8383604051620001499062000217565b620001569291906200080e565b604051809103905ff08015801562000170573d5f803e3d5ffd5b5090505f803373ffffffffffffffffffffffffffffffffffffffff1673ffffffffffffffffffffffffffffffffffffffff1681526020019081526020015f2081908060018154018082558091505060019003905f5260205f20015f9091909190916101000a81548173ffffffffffffffffffffffffffffffffffffffff021916908373ffffffffffffffffffffffffffffffffffffffff1602179055508091505092915050565b610bc6806200084883390190565b5f604051905090565b5f80fd5b5f80fd5b5f73ffffffffffffffffffffffffffffffffffffffff82169050919050565b5f620002618262000236565b9050919050565b620002738162000255565b81146200027e575f80fd5b50565b5f81359050620002918162000268565b92915050565b5f819050919050565b620002ab8162000297565b8114620002b6575f80fd5b50565b5f81359050620002c981620002a0565b92915050565b5f8060408385031215620002e857620002e76200022e565b5b5f620002f78582860162000281565b92505060206200030a85828601620002b9565b9150509250929050565b6200031f8162000255565b82525050565b5f6020820190506200033a5f83018462000314565b92915050565b5f80fd5b5f601f19601f8301169050919050565b7f4e487b71000000000000000000000000000000000000000000000000000000005f52604160045260245ffd5b6200038c8262000344565b810181811067ffffffffffffffff82111715620003ae57620003ad62000354565b5b80604052505050565b5f620003c262000225565b9050620003d0828262000381565b919050565b5f67ffffffffffffffff821115620003f257620003f162000354565b5b602082029050602081019050919050565b5f80fd5b5f6200041d6200041784620003d5565b620003b7565b9050808382526020820190506020840283018581111562000443576200044262000403565b5b835b818110156200047057806200045b888262000281565b84526020840193505060208101905062000445565b5050509392505050565b5f82601f83011262000491576200049062000340565b5b8135620004a384826020860162000407565b91505092915050565b5f67ffffffffffffffff821115620004c957620004c862000354565b5b602082029050602081019050919050565b5f620004f0620004ea84620004ac565b620003b7565b9050808382526020820190506020840283018581111562000516576200051562000403565b5b835b818110156200054357806200052e8882620002b9565b84526020840193505060208101905062000518565b5050509392505050565b5f82601f83011262000564576200056362000340565b5b813562000576848260208601620004da565b91505092915050565b5f80604083850312156200059857620005976200022e565b5b5f83013567ffffffffffffffff811115620005b857620005b762000232565b5b620005c6858286016200047a565b925050602083013567ffffffffffffffff811115620005ea57620005e962000232565b5b620005f8858286016200054d565b9150509250929050565b5f82825260208201905092915050565b7f4d69736d617463686564206172726179730000000000000000000000000000005f82015250565b5f6200064860118362000602565b9150620006558262000612565b602082019050919050565b5f6020820190508181035f83015262000679816200063a565b9050919050565b5f81519050919050565b5f82825260208201905092915050565b5f819050602082019050919050565b620006b48162000255565b82525050565b5f620006c78383620006a9565b60208301905092915050565b5f602082019050919050565b5f620006eb8262000680565b620006f781856200068a565b935062000704836200069a565b805f5b838110156200073a5781516200071e8882620006ba565b97506200072b83620006d3565b92505060018101905062000707565b5085935050505092915050565b5f81519050919050565b5f82825260208201905092915050565b5f819050602082019050919050565b6200077b8162000297565b82525050565b5f6200078e838362000770565b60208301905092915050565b5f602082019050919050565b5f620007b28262000747565b620007be818562000751565b9350620007cb8362000761565b805f5b8381101562000801578151620007e5888262000781565b9750620007f2836200079a565b925050600181019050620007ce565b5085935050505092915050565b5f6040820190508181035f830152620008288185620006df565b905081810360208301526200083e8184620007a6565b9050939250505056fe608060405234801562000010575f80fd5b5060405162000bc638038062000bc6833981810160405281019062000036919062000505565b80518251146200007d576040517f08c379a00000000000000000000000000000000000000000000000000000000081526004016200007490620005e6565b60405180910390fd5b815f90805190602001906200009492919062000173565b505f5b82518110156200016a57818181518110620000b757620000b662000606565b5b602002602001015160015f858481518110620000d857620000d762000606565b5b602002602001015173ffffffffffffffffffffffffffffffffffffffff1673ffffffffffffffffffffffffffffffffffffffff1681526020019081526020015f208190555081818151811062000133576200013262000606565b5b602002602001015160025f8282546200014d919062000660565b92505081905550808062000161906200069a565b91505062000097565b505050620006e6565b828054828255905f5260205f20908101928215620001ec579160200282015b82811115620001eb578251825f6101000a81548173ffffffffffffffffffffffffffffffffffffffff021916908373ffffffffffffffffffffffffffffffffffffffff1602179055509160200191906001019062000192565b5b509050620001fb9190620001ff565b5090565b5b8082111562000218575f815f90555060010162000200565b5090565b5f604051905090565b5f80fd5b5f80fd5b5f80fd5b5f601f19601f8301169050919050565b7f4e487b71000000000000000000000000000000000000000000000000000000005f52604160045260245ffd5b620002798262000231565b810181811067ffffffffffffffff821117156200029b576200029a62000241565b5b80604052505050565b5f620002af6200021c565b9050620002bd82826200026e565b919050565b5f67ffffffffffffffff821115620002df57620002de62000241565b5b602082029050602081019050919050565b5f80fd5b5f73ffffffffffffffffffffffffffffffffffffffff82169050919050565b5f6200031f82620002f4565b9050919050565b620003318162000313565b81146200033c575f80fd5b50565b5f815190506200034f8162000326565b92915050565b5f6200036b6200036584620002c2565b620002a4565b90508083825260208201905060208402830185811115620003915762000390620002f0565b5b835b81811015620003be5780620003a988826200033f565b84526020840193505060208101905062000393565b5050509392505050565b5f82601f830112620003df57620003de6200022d565b5b8151620003f184826020860162000355565b91505092915050565b5f67ffffffffffffffff82111562000417576200041662000241565b5b602082029050602081019050919050565b5f819050919050565b6200043c8162000428565b811462000447575f80fd5b50565b5f815190506200045a8162000431565b92915050565b5f620004766200047084620003fa565b620002a4565b905080838252602082019050602084028301858111156200049c576200049b620002f0565b5b835b81811015620004c95780620004b488826200044a565b8452602084019350506020810190506200049e565b5050509392505050565b5f82601f830112620004ea57620004e96200022d565b5b8151620004fc84826020860162000460565b91505092915050565b5f80604083850312156200051e576200051d62000225565b5b5f83015167ffffffffffffffff8111156200053e576200053d62000229565b5b6200054c85828601620003c8565b925050602083015167ffffffffffffffff81111562000570576200056f62000229565b5b6200057e85828601620004d3565b9150509250929050565b5f82825260208201905092915050565b7f4d69736d617463686564206172726179730000000000000000000000000000005f82015250565b5f620005ce60118362000588565b9150620005db8262000598565b602082019050919050565b5f6020820190508181035f830152620005ff81620005c0565b9050919050565b7f4e487b71000000000000000000000000000000000000000000000000000000005f52603260045260245ffd5b7f4e487b71000000000000000000000000000000000000000000000000000000005f52601160045260245ffd5b5f6200066c8262000428565b9150620006798362000428565b925082820190508082111562000694576200069362000633565b5b92915050565b5f620006a68262000428565b91507fffffffffffffffffffffffffffffffffffffffffffffffffffffffffffffffff8203620006db57620006da62000633565b5b600182019050919050565b6104d280620006f45f395ff3fe608060405234801561000f575f80fd5b5060043610610060575f3560e01c80634f64b2be14610064578063566887001461009457806396c82e57146100b0578063a201ccf6146100ce578063a7cac846146100ea578063df791e501461011a575b5f80fd5b61007e60048036038101906100799190610296565b610136565b60405161008b9190610300565b60405180910390f35b6100ae60048036038101906100a99190610343565b610170565b005b6100b8610174565b6040516100c59190610390565b60405180910390f35b6100e860048036038101906100e39190610343565b61017a565b005b61010460048036038101906100ff91906103a9565b61017e565b6040516101119190610390565b60405180910390f35b610134600480360381019061012f91906103d4565b610193565b005b5f8181548110610144575f80fd5b905f5260205f20015f915054906101000a900473ffffffffffffffffffffffffffffffffffffffff1681565b5050565b60025481565b5050565b6001602052805f5260405f205f915090505481565b5f60015f8573ffffffffffffffffffffffffffffffffffffffff1673ffffffffffffffffffffffffffffffffffffffff1681526020019081526020015f205411801561021b57505f60015f8473ffffffffffffffffffffffffffffffffffffffff1673ffffffffffffffffffffffffffffffffffffffff1681526020019081526020015f2054115b61025a576040517f08c379a00000000000000000000000000000000000000000000000000000000081526004016102519061047e565b60405180910390fd5b505050565b5f80fd5b5f819050919050565b61027581610263565b811461027f575f80fd5b50565b5f813590506102908161026c565b92915050565b5f602082840312156102ab576102aa61025f565b5b5f6102b884828501610282565b91505092915050565b5f73ffffffffffffffffffffffffffffffffffffffff82169050919050565b5f6102ea826102c1565b9050919050565b6102fa816102e0565b82525050565b5f6020820190506103135f8301846102f1565b92915050565b610322816102e0565b811461032c575f80fd5b50565b5f8135905061033d81610319565b92915050565b5f80604083850312156103595761035861025f565b5b5f6103668582860161032f565b925050602061037785828601610282565b9150509250929050565b61038a81610263565b82525050565b5f6020820190506103a35f830184610381565b92915050565b5f602082840312156103be576103bd61025f565b5b5f6103cb8482850161032f565b91505092915050565b5f805f606084860312156103eb576103ea61025f565b5b5f6103f88682870161032f565b93505060206104098682870161032f565b925050604061041a86828701610282565b9150509250925092565b5f82825260208201905092915050565b7f496e76616c696420746f6b656e730000000000000000000000000000000000005f82015250565b5f610468600e83610424565b915061047382610434565b602082019050919050565b5f6020820190508181035f8301526104958161045c565b905091905056fea26469706673582212201941e160d0fd52bc77f5c0ba19983414983ef58d81e15704f179e839a7fc4b9064736f6c63430008150033a26469706673582212207b6e5828c2e37345eb0d358c34531226343489f419a562abe2cdd250e11523c464736f6c63430008150033",
  "immutableReferences": {},
  "source": "// contracts/BalancerFactory.sol\r\npragma solidity ^0.8.0;\r\n\r\nimport \"./BalancerPool.sol\";\r\n\r\ncontract BalancerFactory {\r\n    mapping(address => address[]) public userPools;\r\n\r\n    function createPool(address[] memory tokens, uint[] memory weights) external returns (address) {\r\n        require(tokens.length == weights.length, \"Mismatched arrays\");\r\n        address newPool = address(new BalancerPool(tokens, weights));\r\n        userPools[msg.sender].push(newPool);\r\n        return newPool;\r\n    }\r\n}\r\n ",
  "sourcePath": "D:\\Web Development\\11 - Internship Projects\\balancer-clone\\contracts\\BalancerFactory.sol",
  "compiler": {
    "name": "solc",
    "version": "0.8.21+commit.d9974bed.Emscripten.clang"
  },
  "schemaVersion": "3.4.16",
  "updatedAt": "2024-09-04T07:48:36.075Z",
  "devdoc": {
    "kind": "dev",
    "methods": {},
    "version": 1
  },
  "userdoc": {
    "kind": "user",
    "methods": {},
    "version": 1
  }
}